:020000040800F2
:10000000D80A00208501000881460008A53E0008A6
:1000100000000000000000000000000000000000E0
:10002000000000000000000000000000B5460008CD
:100030000000000000000000834600080948000896
:1000400097010008000000009701000897010008D0
:100050009701000897010008970100089701000820
:100060000000000097010008291C00089701000803
:10007000970100087D4800088D4800080000000036
:100080009D480008000000000000000097010008E3
:10009000000000009701000897010008A93E000831
:1000A00097010008970100089701000897010008D0
:1000B000D55600080000000000000000000000000D
:1000C00000F002F800F04EF80CA030C808382418F0
:1000D0002D18A246671EAB4654465D46AC4201D180
:1000E00000F040F87E460F3E0FCCB6460126334264
:1000F00000D0FB1AA246AB463343184764640000A5
:1001000084640000103A02D378C878C1FAD8520744
:1001100001D330C830C101D504680C6070470000BD
:100120000023002400250026103A01D378C1FBD813
:10013000520700D330C100D50B60704710B5642959
:1001400002D100F07FF810BD002010BD1FB500984F
:10015000019901F080FA00F099FE1FBD10B500F082
:1001600001FF10BD01F046F91146FFF7EFFF05F062
:1001700073FF01F045FA03B4FFF7F0FF03BC01F091
:10018000DBFB00000748804707480047FEE7FEE723
:10019000FEE7FEE7FEE7FEE704480549054A064B91
:1001A0007047000079480008C1000008D80400200A
:1001B000D80A0020D8060020D80600200FB4054930
:1001C00010B503AA029800F019FE10BC08BC04B0D8
:1001D00018470000D0030020F8B50E460446002062
:1001E00020622046E1688847002829D0252802D0CF
:1001F0006268A16820E0E168204600278847050082
:100200001ED028464138192802D80127FF02203580
:100210003246204627602946FFF790FF002808D085
:10022000012804D0F61DF608F6000836D9E7361D79
:10023000D7E762682846A1689047206A401CCFE74C
:10024000206AF8BDF7B5002575291068009914A635
:1002500011D0C046C046002802DA404211A608E08C
:10026000009909688A0701D50FA602E0490704D55D
:100270000EA6012501E0C046C046009F0024243799
:1002800004E000F0CFFD30313955641C0028F8D16E
:100290002B4632462146009800F058FDFEBD000076
:1002A000000000002D0000002B00000020000000D6
:1002B00001E004C0091F0429FBD28B0701D502808D
:1002C000801CC90700D00270704700290BD0C307FB
:1002D00002D00270401C491E022904D3830702D5B4
:1002E0000280801C891EE3E70022EEE70022DFE7A0
:1002F000024670B50A4392072AD11E4DEE0104C88A
:1003000008C9541B9443344017D0D0B2D9B2401A14
:100310002106014310D190B299B2401A2104014341
:100320000AD110021902000A090A401A21020143E7
:1003300002D1100E190E401A70BD9A42DFD010BAC9
:1003400019BA884201D9012070BD0020C04370BD98
:1003500002780B78401C491C002A09D09A4207D128
:1003600002780B78401C491C002A01D09A42EFD039
:10037000D01A70BD01010101002203098B422CD368
:10038000030A8B4211D300239C464EE003460B43E5
:100390003CD4002243088B4231D303098B421CD347
:1003A000030A8B4201D394463FE0C3098B4201D339
:1003B000CB01C01A524183098B4201D38B01C01A71
:1003C000524143098B4201D34B01C01A52410309E8
:1003D0008B4201D30B01C01A5241C3088B4201D397
:1003E000CB00C01A524183088B4201D38B00C01A44
:1003F000524143088B4201D34B00C01A5241411A6B
:1004000000D201465241104670475DE0CA0F00D04D
:100410004942031000D34042534000229C46030946
:100420008B422DD3030A8B4212D3FC22890112BACC
:10043000030A8B420CD3890192118B4208D38901A4
:1004400092118B4204D389013AD0921100E08909BC
:10045000C3098B4201D3CB01C01A524183098B429D
:1004600001D38B01C01A524143098B4201D34B0186
:10047000C01A524103098B4201D30B01C01A5241E9
:10048000C3088B4201D3CB00C01A524183088B4270
:1004900001D38B00C01A5241D9D243088B4201D3F9
:1004A0004B00C01A5241411A00D2014663465241E4
:1004B0005B10104601D34042002B00D549427047E3
:1004C00063465B1000D3404201B50020C046C046E1
:1004D00002BD7047704770470246C80FC00781438E
:1004E0004B0030B54B405B009B0D20D01923DB0641
:1004F000C91801231B05994220DB0324A407042506
:100500001346AB400BD3002B04D1EB0613409B00EA
:10051000E34204D401246407002312195941FF2344
:100520001B0599420BD2C9000143500F09E0CB02D1
:1005300004D501430803024305D0054830BDFF211F
:10054000C905084330BD084607210905884330BD69
:100550000000C07FF0B5F94D0C091E092C402E405B
:100560002F468BB0A7437DD0B543FCD0002E7AD068
:10057000002CFCD00D465D40ED0F2543AC1BFF2544
:10058000AD0464190894C502440DC9022143500DFD
:10059000DC0204430120C00701430443D20201915D
:1005A000200C110C00958C46010423468B430A91C4
:1005B00061460904E24D8A430991010A7D444919C3
:1005C0008039097805464D4301266D18F605751BDF
:1005D0006943C90C640B891C4C436418B5012C1B7E
:1005E000250C2E04B4434C434D43210C6918890952
:1005F0000591009DE90701D00121C90704912C460E
:1006000001996708CD072F434C08059DE10B4D4329
:100610002D0C29466646754302950D4645432E46E8
:10062000029D7D1BB44100950D465D4301942C0C49
:100630002F040D465543AE462D0C3D4302950394C1
:100640007546049C2D04641B049406D2029C039DF1
:10065000641C002675410395029401AC70CC009F88
:100660007D1B01E03EE162E1B44109040095079180
:1006700001940599A4086143090C0C464443650B99
:10068000E7040C4666467443A646640B3C43039558
:1006900002947446049DE4042C1B049406D2029C2C
:1006A000039D641C002675410395029401AC70CC37
:1006B000009F7D1BB44101940C465C430095650F7F
:1006C000E7000C465443A646640F3C43039502944E
:1006D0007446049DE4002C1B049406D2029C039DE6
:1006E000641C002675410395029401AC70CC009FF8
:1006F0007D1BB441AE09AF06049DC900AD092F436F
:10070000049DA406AD060495079D3443691807911E
:10071000059DE10B4D432D0C294666467543029518
:100720000D4645432E46029D7D1BB44100950D4666
:100730005D4301942C0C2F040D465543AE462D0C01
:100740003D43029503947546049C2D04641B049458
:1007500006D2029C039D641C0026754103950294F9
:1007600001AC70CC009F7D1BB44101948C050694B4
:10077000079C890A611800950791019C0599A408B6
:100780006143090C0D464543680BEF040D46644672
:1007900065436C0B3C43049FED047D1BAC4602D2C9
:1007A0000025641C6841009E019D371B8541084659
:1007B000584301950C46460FC5005443600F28432B
:1007C0006546E4002C1B02D20025401C6E41019DB1
:1007D0003F1AB5412846BD09800628438446A00932
:1007E000BF064E020699A40676180743079D00200F
:1007F00068410A99079019430020099B00906046C0
:10080000FF1913434041E20F64003A43A4460446F3
:10081000D71A8C41A04203D90120009020463A46C5
:10082000C70F941840416246D20F224364466400C9
:100830000494009CBE466400D71AA446044602975E
:100840008C417746002F01D1A04204D96046401C5C
:100850008446029A2046C40FA64694184041049A42
:100860000546D20F224364466400D31A8D41714677
:10087000002901D1A84202D928461A46641C104317
:100880000122002800D0164361020020079B89192D
:1008900004465C410223002C02DB491813466441E4
:1008A000089DCE0A2D145D194B056705E10A2C053C
:1008B0000D1908993E43C9076940002B08D09340A1
:1008C00006D30022761C5141002B01D17608760018
:1008D0001C4A002D43DB154241D0AA433FD030468D
:1008E0000BB0F0BD06180D464D41174C7642AC4199
:1008F0001AD395181C465C41134A6D42A24113D38A
:10090000012252054C00D4420AD15C00D4420BD0E3
:100910004B4002D592021143E2E749004908DFE764
:100920005940C90FC90718E000200849D8E7054811
:1009300001420DD10342F7D0F2E700000000FF07AB
:10094000F75D00000000F07F0000E0FF0000F87F8E
:10095000114859400143C01241400020C0E7012323
:10096000089A9B069A4205DC032252078918C90F90
:10097000C907B5E7052252078918074A1143D21261
:100980005140ADE770B515461C4602460B46284659
:100990002146FFF7DFFD70BDFFFFFF7F0346CA0260
:1009A000400D10B510430A1504D00124E40720437C
:1009B000002A05DB0A4CA21A04D4D040FF2A00DD2D
:1009C000002010BD4A00002B01D0012000E00020D3
:1009D000101801225205D042F2D8C817C04310BDEA
:1009E0001E0400001F22030C02D10F22000402D0BB
:1009F000030E03D004E00020014670470002083ACD
:100A0000030F01D10001121F830F01D18000921E3C
:100A1000002801DB4000521E120551184205C01289
:100A2000411810467047C10FC90700D0404201224B
:100A300092071143D6E701218907D3E7F0B58B4C24
:100A40000F09254689B0BD437BD01D092646AE431C
:100A5000FAD00E465E402740F60F3E43254071D047
:100A600024012142FBD0FF24AD19A4042D1B0395C2
:100A700001252D05DB02DB0AC9022B43C90A2943E4
:100A80001E010901040F130F050121431701880BF3
:100A9000820391432D098C46A90B1E438A0395437B
:100AA000B30B9A0396433F09BA0B9403A7430296EC
:100AB0002E467E430497B6464E19D7190C4601962A
:100AC000544305977E43371B7646BF1B3601B64617
:100AD000BE0B361900967646BC043719009C01D32C
:100AE000641C00946400002F01D001263443029E50
:100AF000049F754366467E430496760034196E0063
:100B000034190094029C019E1C196643751BAE4665
:100B1000069465464519059C05956C4359437546F1
:100B20000891691A0191049E01465143A41B049146
:100B3000611A009C0791E10605D061090122114369
:100B400002E072E06EE06109089D00272C0A2D0684
:100B50006918049D7C412A0A2D066918019D62418D
:100B6000AC0DAD026D185441079A910D92025519C2
:100B70006141029A644658435443069B059A5A437E
:100B8000121A131B9A0E9B015B187A41010B000588
:100B9000C3185141220A200644195A419A4200D2F0
:100BA000491C01204002814203D315230226F6434B
:100BB00002E014230326F6432020C51AA940174655
:100BC000AF40DA400A4320460399D840091473180D
:100BD00019055118039A3843D2075140AC4009D047
:100BE0000122944006D30022401C5141002C01D127
:100BF000400840001E4A934212D3012203989206F5
:100C0000904207DB0520400709181A480143C0122B
:100C1000414004E0032040070818C10FC907002025
:100C200009B0F0BD0020F107FAE705180C464C4169
:100C300011486D42A04115D394181A465A410E48E6
:100C4000644290410ED301204A004005824209D3FC
:100C50005A00824206D35940C90F084AC9070020EA
:100C60001143DDE700200649DAE700000000FF0736
:100C7000FE070000FFFFFF7F0000E0FF0000F07FA5
:100C80000000F87F0121C9050123411842001B061D
:100C9000D3185B0E0AD0C1100722D206891840076C
:100CA0005242D14201D5520089187047090208D535
:100CB0000146002A03D0C10FC90700207047104623
:100CC0007047420202D000200249704707210905FF
:100CD0000143F4E70000F87F1F22030C02D10F222A
:100CE00000041CD0030E01D10002083A030F01D109
:100CF0000001121F830F01D18000921E002801DB2A
:100D00004000521ED205511802125118192290406B
:100D100004D3491C002801D14908490008467047FE
:100D2000C10FC90700D04042012292071143D3E707
:100D300001218907D0E710B500F088F8006810BDE0
:100D400010B5044600F082F8046010BDFFB50446FB
:100D50000D4681B0243000902168880604D5102209
:100D6000E0699143216000E00120A84201DD471BBA
:100D700000E000270498A1697A191018081AA061E8
:100D80002078C00602D42046C046C046002608E0AF
:100D900003986268A168805D9047206A401C761CB9
:100DA000206204988642F3DB2078C0060AD52046EC
:100DB000C046C04606E06268A16830209047206ABD
:100DC000401C206238467F1E0028F4DC07E00098B3
:100DD0006268A168405D9047206A401C20622846F6
:100DE0006D1E0028F3DC2046C046C0462078000671
:100DF00002D5022005B0F0BD0120FBE7084B70B51D
:100E00000D467B4400F02BF80446284600F03AF8E3
:100E1000002802D00020C04370BD204670BD0000F5
:100E20003B52000001468008081A02091018020A05
:100E30001018020C1018C008820012185200891AEB
:100E400001E0401C0A390A29FBD27047004870476C
:100E50007804002001694A1C02610878704700B5D7
:100E60008FB00291002105910549019379440391C6
:100E7000114604906846FFF7AFF90FB000BD0000BF
:100E8000E5FFFFFFC06880210840704710B5434868
:100E90005421FFF72BFA42485421FFF727FA414823
:100EA0005421FFF723FA40483C493D4B404A01603A
:100EB0003E4803603B4810605A1C0A65411C196596
:100EC000012101653C48354A3AA1784400F0FEFA18
:100ED000002804D1384878440C3800F099FB384891
:100EE0002F4A36A1784400F0F1FA002804D13448A2
:100EF00078440C3800F08CFB32482A4A2FA1784401
:100F000000F0E4FA002804D12E4878440C3800F0B0
:100F10007FFB40232148DC000021224600F0B0FA8C
:100F2000002804D0244878445C3800F071FB1C4849
:100F300022464023002100F0A3FA002804D02048D4
:100F400078445C3800F064FB1648224610230021E8
:100F500000F096FA002804D01A4878445C3800F073
:100F600057FB10BD0F4870B5006D44080B48640076
:100F700000F020FB0A4800F01DFB0A4800F01AFBB5
:100F800009E0206D450820466D0000F013FB204667
:100F900000F04FFA2C46002CF3D170BD7C030020EA
:100FA000D003002024040020680000206C000020F2
:100FB0007000002072000000D25400007700000092
:100FC000BF540000AD540000F0B50C46871A9C4198
:100FD0000D46861A9D4103D2C01BA141D21963411F
:100FE0000D0D1F0DC94EEC1BAE435CD07F057F0D70
:100FF0000026002F51D02D05AC46A943DD02012368
:10100000ED0A1B051D4320231B1B24D41746E74074
:10101000381871412F46E740CC199D4028183146B9
:1010200061410C0D27D161449A4013D50023401C27
:10103000594152000ED14008400001224B00520598
:10104000D34207D305204007C14201D5B04900E093
:10105000B0493046F0BD6B00002A00D001229A183A
:101060001F23203C1B1B01D5002302E0E54028186C
:1010700071410C0DD7D0012424050919C407CD07EF
:1010800040084908E40F28436144002CD5D00024CF
:10109000401C61419A40D0D1CDE76A05520DD9D1AB
:1010A000C90FC907D5E79C4D4E00002801D0012487
:1010B00000E0002434195F00002A01D0012600E07E
:1010C0000026BE19954FAC420CD8AE420AD8B442A5
:1010D00006D001256D05EC42BCD010461946F0BD86
:1010E0009942FCD000203946F0BDF0B51FB40C4643
:1010F0000F46811A9F412546861A9D4106D2012539
:10110000ED076F40401ABC4152187B41210D1E0D66
:101110008D1BAC467D4D8D437ED075056D0D7CD00D
:101120000D05AE46AC431B031B0B794D52429D414E
:10113000202366469B1B14D31746F7403818002619
:101140000090744160462F460741E41900989D4085
:101150002818664116D4714671189A4025D5012386
:1011600020E093182A466A415200002B00D0521CFE
:101170001E23203E9B1B002B61DD3541EE172818F6
:101180006641E8D5001876415B1C9A4000D3401CAC
:101190004B05F3181524E34010D3002B52D07146B1
:1011A0007118D30FC01802D3491C05B0F0BD01233C
:1011B000DB079A42F9D140084000F6E701225205C8
:1011C000B21801D1002853D00123CC0ADB02994385
:1011D000891E002A08D1020C03D0020C0004103929
:1011E00002E00246002020390023550B05D11202EF
:1011F0000823550B01D152010D23550C01D11201C9
:101200001B1DD50C01D192009B1C150D01D1520064
:101210005B1C2025EE1A01E02CE022E00546F5409B
:1012200015439840CA1AE10769181305C918002A1E
:10123000BBDA032040070818C10FC9070FE0714649
:101240006118B2E7F10740080843711071444A0081
:101250000CD001235B059A42A7D2C90FC907002011
:10126000A3E74905490D26D1002001E00028F4D16B
:1012700000219AE7284D6600002801D0012100E0F6
:10128000002171185F00002A01D0012600E000262D
:10129000BE19224FA94210D8AE420ED8B14208D092
:1012A00001256D05E94206D01946A80241401046C5
:1012B0007BE79C4201D0214677E70020394674E75E
:1012C00010B50C465C4005D50124E4076340FFF7E8
:1012D0000CFF10BDFFF778FE10BD30B40C465C402B
:1012E00004D50124E407634030BC6DE630BCFCE665
:1012F00070B50124E40761400D465D4002D4FFF75C
:1013000063FE70BD6340FFF7F0FE70BDFF07000095
:101310000000F0FF0000F07F0000E0FF0000F87F19
:1013200030B50346CA02400D1043164D164C0A153F
:1013300002D02043002A06DBAA1A002A12DDD04080
:10134000FF2A0BDC30BD5205520D01D14000400890
:10135000AA1A07D4D0404042FF2A01DD002030BD48
:101360000028FCDD4A00002B01D0012000E0002015
:10137000101801225205D042F0D8C817C04360406F
:1013800030BD00001E0400000000008070B505465E
:101390004800440D124B0020002C0AD0634008D0B6
:1013A0009A4206DA6642B24203DD12054019514103
:1013B00070BD002C08D0002B09D0C90FC907002A26
:1013C000F6DB084A114370BDC90FC90770BD284636
:1013D0000A03104302D00020034970BD284670BDA7
:1013E000FF0700000000F07F0000F87F0048704712
:1013F000780400207546FFF7F9FFAE460500694600
:101400005346C008C000854618B020B5FEF7C4FE9C
:1014100060BC00274908B6460026C0C5C0C5C0C587
:10142000C0C5C0C5C0C5C0C5C0C5403D49008D468A
:10143000704770B50446051F00F0F0F80068002CF6
:101440001AD0446801E020466468002C01D0AC4208
:10145000F9D301680A18AA4204D12A6805468918F6
:10146000016000E0456028684119A14205D161682A
:10147000696021684018286070BD6C6070BD000014
:1014800070B5C468A50713D0650211D4D51FF93D06
:101490000AD0FF3D6D1E07D0FF3DFF3D022D07D155
:1014A00001462431012305E0074E5D1EB54201D3FC
:1014B000012070BD0161C36141600F2109028C43AD
:1014C0001443C460002070BDFFFFFF00F7B516464F
:1014D0000C46104600F06EF82078611C61280AD096
:1014E000722802D0772839D102E00125002404E0D7
:1014F0000225042401E02D4D0824022203230127A4
:101500000878491C2B2806D0622807D02039C87FCC
:10151000742807D008E01D431443F1E70420054375
:101520003C43EDE7102004430098214604F036FDCB
:10153000411C13D00021316171600121F560490225
:10154000F1617061200704D530460222002100F0CD
:10155000E1F8306D384330653046FEBD0020FEBDF9
:10156000F8B50D460646124C206DC10704D041085F
:1015700004D044086400F7E7224610E0542000F04D
:1015800097F8070010D07908206D49000122114317
:101590000843542120653846FEF7A8FE3A462946FE
:1015A0003046FFF793FFF8BD0020F8BD0280000031
:1015B0007C030020FEB50446466900690F4F019088
:1015C000E56800200090A80707D0204600F04CF9FD
:1015D000304604F0BFFC002801DA3846FEBD28057D
:1015E00002D50198FFF725FF4C212046FEF77EFE2D
:1015F000206D4008400020650098FEBDFFFFFFFF02
:1016000010B50446C046C0462046FEF7B4FD10BDE6
:1016100010B500F077F900F06FF910BD0048704781
:1016200080040020704770477047704738B5044603
:101630000A4600206946C046C046002805D002463A
:101640002046009900F085F9012038BD10B5012031
:1016500000F0D4F910BDF8B5C046C04605460020DC
:101660000C461020C0460646A819A0420DD93246A5
:1016700069460020C046C046070001D100F0BEF90F
:101680000098A04200D00546C419FFF7C7FFF61D19
:1016900007460560F008C0004619284600F052F9D8
:1016A000B44204D031463868A21B00F052F9F8BDAC
:1016B00070B50646FFF7B2FF056830460B30C40828
:1016C000E400B44201D8002070BD68682A460028B2
:1016D00018D00168A14211D30B46214608318B4234
:1016E00008D3436801194B6003681B1B0B605160F2
:1016F000046001E041685160001D70BD0246406811
:101700000028E6D121462846FFF790FF0028DCD1CB
:1017100070BD0000F8B5044616460D464769007BCB
:10172000800730D0384604F02BFC00282BD13246FD
:101730001026002A25D0012A02D0022A23D104E053
:10174000204600F020F945191BE0384604F010FC53
:10175000E16831430028E16004DA204600F054F8E3
:101760000120F8BDC9030BD56268E16A914200D837
:101770001146A26989182269891A814200DD08464A
:101780002D18002D01DA0220F8BDE16A6068E268D8
:10179000814206D29103E06203D5012149048A43C4
:1017A0003243A669AE4211DCE16A814201D90B469F
:1017B00000E003469F192369FF1AAF4206DD81420C
:1017C00001D90F4600E007469F4206D12020024380
:1017D0000020A060A56220600DE0AD1BE669AE1B95
:1017E0008142A66000D90846C01A281A20605819FC
:1017F000606020208243034802400020E2604034C1
:101800002072F8BDBFCFD7FFC16880221143920379
:101810009143C1600021816001607047F7B51446B3
:101820000E463348D5685769054209D03846A16944
:1018300004F0E8FB002811DB2D48C0430540E560BB
:101840002B4632463846009904F0E0FB4200A1697D
:101850005208B21A89180028A16104D02046FFF767
:10186000D3FF0020C043FEBD70B504460569C06AC1
:101870006168884200D80846E1680522D204914395
:10188000E160C90314D5A84209D02246411B28466D
:10189000FFF7C4FF002802D00020C04370BDE562FE
:1018A00000206560A060E068012109048843E060D1
:1018B000002070BD10B50446C06820218843E06058
:1018C000A16AA06988420ED02046FFF7CDFFE068EC
:1018D00003210903884310210843E060A06AA06146
:1018E0002069E06260600349E0680840E06010BD84
:1018F00010000200BFBFFFFF10B5002801D000F0AC
:101900001BF810BD10B5014602A000F05DF80120E3
:1019100010BD000053494752545245443A20526585
:101920006469726563743A2063616E2774206F7016
:10193000656E3A200000000001491820ABBEFEE7AA
:101940002600020000210160416080607047102085
:10195000704710B50346406801E003464068002820
:1019600001D08842F9D31868C3188B4206D0CB1C2B
:10197000D808C000001D411A521A0146081D0A600D
:10198000FFF757FD10BD10B50146C268900703D0A0
:10199000900607D5886A0AE0FFF758FA012101602E
:1019A000881E10BD8B694868C0180B69C01A403189
:1019B0000B7A002B02D0497A401A10BD1103FCD5D6
:1019C0000028FADD401E10BD70B505460C460A2001
:1019D00000E06D1C00F018F8002D06D028780028D3
:1019E000F7D102E0641C00F00FF8002C02D0207840
:1019F0000028F7D10A2000F007F870BD10B500F0FC
:101A00000BF8FFF779FF10BD08B569460870032091
:101A1000ABBE08BD7047000010B5012805D00021FD
:101A200003A0FFF7D1FF012010BD09A1F8E70000D6
:101A300053494752544D454D3A204F7574206F66B7
:101A40002068656170206D656D6F7279000000001F
:101A50003A2048656170206D656D6F727920636F03
:101A600072727570746564000849002008714871CD
:101A70008871C871087248728872C87204490A680D
:101A800050630A68D063096808647047000000204A
:101A90002002002009490020087148718871C8712E
:101AA000087248728872C87205490A6850630A68E9
:101AB000D0630968FF200864704700000000002020
:101AC0002002002010B51348002141718171C171BD
:101AD00041728172104BC1721A6851631A68D163E6
:101AE000047A02461279002C07D01B681A64521E31
:101AF000D2B20271022A08D908E019680A64521C9D
:101B0000D1B20171FF2901D301210172012000F03E
:101B100071FA10BD000000202002002010B513480B
:101B2000002101718171C17101728172104BC1720A
:101B30001A6851631A681164447A02465279002C7B
:101B400007D01B68DA63521ED2B24271022A08D94A
:101B500008E01968CA63521CD1B24171FF2901D350
:101B600001214172012000F045FA10BD0000002063
:101B70002002002010B51348002101714171C1718C
:101B800001724172104BC1721A68D1631A681164F4
:101B9000847A02469279002C07D01B685A63521E41
:101BA000D2B28271022A08D908E019684A63521C2D
:101BB000D1B28171FF2901D301218172012000F08E
:101BC00019FA10BD000000202002002070B5144852
:101BD0000021017141718171017241728172114A5A
:101BE000C57A03461468DB79002D636309D05B1E58
:101BF000DBB2C3711468E36312681364022B0AD961
:101C00000AE05B1CD9B2C1711368D9631268116410
:101C1000FF2901D30121C172012000F0EBF970BD51
:101C2000000000202002002010B5034800F0EEF86C
:101C3000024800F0EBF810BDC40200202003002091
:101C400010B50446006C09498008800040186064A3
:101C5000207814210838FEF78FFB04498031A164F5
:101C6000C106C90E01208840E06410BD0008024092
:101C70000179084B8906890E8A00D2180265054A47
:101C80004432491E42658A07920F012191408165C5
:101C900070470000FC080240F0B5846CC56C6560BC
:101CA000046D002C02D0446D856D65600B4C656839
:101CB000066C1C273E400127B7403D436560046821
:101CC00063608368102B036803D099600068C2606A
:101CD000F0BD9A600068C160F0BD000000000240E5
:101CE00072B6FEE709490020087148718871C87111
:101CF000087248728872C87205490A6850630B6896
:101D0000FF22DA63096808647047000000000020C1
:101D100020020020F0B5002808D0014620314A7981
:101D2000022A05D00422C263002008710120F0BD00
:101D3000026813680E24A3431360426C1468FF23E7
:101D400001339C43146002681468640864001460E2
:101D50000C4A5568066C1C24264001242746B740CF
:101D60003D435560826CC56C5560026D002A05D0FC
:101D700015689D431560826D406D42604C71002076
:101D80000871F0BD00000240F8B500240246203280
:101D90005179022903D00421C16301242DE0016897
:101DA0000B680E25AB430B6001680B685B085B009A
:101DB0000B60416C0B68FF250135AB430B6010498C
:101DC0004D68066C1C231E4001231F46B7403D434F
:101DD0004D60816CC56C4D60016D002906D00E68A8
:101DE0001D02AE430E60416D856D4D605371002143
:101DF0001171816B002900D088472046F8BD000092
:101E0000000002402030407970470000F0B42C49B7
:101E10000C6802681368056C1C273D400426AE4020
:101E2000264211D05E070FD513689B0603D41468B1
:101E300004239C4314604B68046C04223C40A24081
:101E400013434B60016B1CE00227AF40064627405E
:101E50002036002F19D09F0717D513689B0605D48D
:101E600013680A24A3431360012272714B68046C47
:101E70001C2214400222A24013434B600021317106
:101E8000C16A00291AD0F0BC08470827AF40274292
:101E900014D01B0712D513680E24A34313604B689C
:101EA000046C1C22144001221546A5402B434B60B4
:101EB000C263727100213171416BE2E7F0BC70477F
:101EC0000000024070B504003FD025482568142169
:101ED0002818FEF751FA800020640220264620369A
:101EE000707128681F4908402860E168A06862692D
:101EF0000843216911430843A1690843E169084384
:101F0000216A084321680A68104308602046FFF7E9
:101F100097FE0121A06889030025884200D16560F1
:101F20002079616C8006800E0860A06CE16C4160D5
:101F30006068401E03280AD82046FFF799FE206DEE
:101F40000560606DA16D416004E0012070BD2565F4
:101F50006565A565E563012070713571002070BD70
:101F6000F8FFFDBF0F80FFFFF8B504468C46203018
:101F70000179002501290BD001260671417900273E
:101F8000012907D08021E163077101252846F8BDAA
:101F90000220F8BD02214171E76320680168490809
:101FA0004900016061462046FFF776FE206B00285D
:101FB0002068016801D00E2205E0042291430160EF
:101FC000206801680A2211430160606C0168CA033D
:101FD000074902D502680A430260206D002802D03A
:101FE00002680A4302602068016831430160CDE75E
:101FF0000001000070B5044600F0BCF80546601C06
:1020000002D004480078241800F0B4F8401BA04225
:10201000FAD370BD58000020F0B5002303249AE0E5
:102020002A4601259D402A407ED00E79B607B60F7C
:10203000012E01D0022E16D186682746B4465E00D6
:10204000B646B7406646BE43B446CF687646B7400C
:102050006646374387604668AE430D79ED06ED0F5F
:102060009D40354345600D79ED43AD0708D0C56807
:102070005F002646BE40B5438E68BE402E43C66014
:102080000D79AD07AD0F022D0ED1DD08AD002D1875
:10209000AC462D6A5E07F60E0F27B740BD430F69A9
:1020A000B7402F4365462F6205685F002646BE4055
:1020B000B5430E79B607B60FBE402E4306604D6895
:1020C000AD03AD0F46D09E08264DB6007519AC463F
:1020D0002D6E9E07F60E0F27B740BD4305273F071D
:1020E000B84201D100270FE01F4FB84201D10127AC
:1020F0000AE01E4FB84201D1022705E01C4FB8424A
:1021000001D1032700E00527B7402F43154D664650
:1021100037662D684E689543F60200D51543114F7A
:102120003D607D68954300E014E04E68B60200D53E
:1021300015437D600B4D80356E684F689643BF0335
:1021400000D516436E602E684F689643FF0300D596
:1021500016432E605B1C0A681546DA4000D05FE724
:10216000F0BD0000001802400004005000080050BC
:10217000000C0050014880687047000058000020A3
:1021800070B5024640325378202B1CD11378012BB6
:1021900019D00123137024245470046825689D43CA
:1021A0002560046825681E03B5432560046825681A
:1021B0000D432560006801681943016020205070BC
:1021C0000020107070BD022070BD70B50246403214
:1021D0005378202B1BD11378012B18D001241470B5
:1021E0002423537003681D68A5431D6005682B6890
:1021F0000F263602B34309021943296000680168BB
:1022000021430160202050700020107070BD02201A
:1022100070BD7047704770B503689A691968D243FA
:10222000D40508D4CC43240605D4446C01252C43A2
:1022300044642C02DC61530509D4CB431B0606D44D
:10224000436C082423434364E3010468E36192057B
:1022500009D4C943090606D4416C022211434164E2
:1022600011020268D161416C0B22114201D001F0D0
:10227000B1FE70BD026891691268436B002B00D0FB
:10228000184770477047000070B5040006D0254617
:10229000403568780026002802D005E0012070BD96
:1022A0002E70204600F04CF82420687020680168E9
:1022B0004908490001600F216068090688432168C8
:1022C000086121688A680120C00382438A60E1684E
:1022D0000129A16808D0212292021143226891604D
:1022E000E168022902D005E00143F7E701212268F5
:1022F000C902516021684A680F4B1A434A6021683D
:10230000CA688243CA60616920690843A1690902F9
:1023100008432168C860216AE069084321680860B1
:102320002068016801221143016066642020687002
:102330002663AE70002070BD008000027047000070
:1023400030B58DB0044614216846FDF7CFFF182143
:1023500005A8FDF7CBFF1B49206888422FD120201C
:1023600000250590079505A800F0C0F8002801D0C9
:10237000FFF7B6FC144C616B022001436163616B93
:1023800002950140032000020B9100901220019061
:1023900006200490039569460C48FFF73DFEE16B6B
:1023A000012040050143E163E16B002201400B91F4
:1023B0001146172000F070F8172000F061F80DB0FA
:1023C00030BD0000005400400010024000040050E6
:1023D00070477047024881680278891881607047A9
:1023E0005800002010B508480024016882151143E8
:1023F0000160032000F00AF8002801D0012401E068
:1024000000F028F8204610BD0020024070B50F4EA5
:10241000002431780546002915D07D20C000FDF745
:10242000ABFF01460A480068FDF7A6FF00F0F6FB87
:10243000002808D1042D06D200222946401E00F0B3
:102440002BF8756000E00124204670BD5800002084
:102450006400002008B509480168012211430160A9
:1024600000681040009005484038C26B01040A43E0
:10247000C263C06B0840009008BD000040100240DD
:10248000002805DBC106C90E01208840014908600B
:102490007047000000E100E010B503F0C5F910BD81
:1024A00010B50F4C21680322520291430143216071
:1024B000C11FFF39FA390ED10A4806210068484386
:1024C0000949FDF759FF401C02E0002805D0401ED5
:1024D00061694905F9D4002010BD032010BD00003A
:1024E000007000406400002040420F00F8B5044630
:1024F000006800264D4D800358D54C4800274038D1
:10250000C06BC00009D449484038C26B01040A437B
:10251000C263C06B084001270090454801688215DE
:1025200011430160FFF726FE009005E0FFF722FE51
:102530000099401A022825D83D480068C005F5D505
:10254000E8690321090208400FD0616981420CD07B
:10255000E86903210902EA698843012109040A4361
:10256000EA61EA698A43EA61E861C0070FD0FFF7D0
:1025700001FE009008E0FFF7FDFD0099411A2D488B
:10258000814201D9032609E0E8698007F3D5E869AB
:1025900003210902884361690843E861002F05D0DF
:1025A00022484038C26B01048A43C2632078C007C6
:1025B00005D06869616880088000084368612078F8
:1025C000800606D56869032109038843A16808438A
:1025D00068612088400411D56869216980008008FD
:1025E00008436861012120698907884206D10F48A4
:1025F0004038C168012212041143C16020880005DF
:1026000012D56869032189038843E168084368613A
:102610000121E0688903884206D104484038C16836
:10262000012212041143C1603046F8BD401002403F
:102630000070004088130000F8B50F46060043D034
:102640004D4D28684007400FB84213D22868C00893
:10265000C00038432860FFF78DFD044605E0FFF712
:1026600089FD011B4548814261D828684007400F19
:10267000B842F4D13068424C81070DD5400704D5EB
:10268000A068072109030843A060A0680F21090280
:102690008843B1680843A0603078C00732D07068C2
:1026A00001280AD002280BD000280FD0344940312D
:1026B00003280ED0C969890704E02168890301E075
:1026C00021688901002906DB0120F8BD2168490540
:1026D000F8E7096AEFE7A168C908C9000143A160EA
:1026E000FFF748FD009006E0FFF744FD0099411A0E
:1026F000224881421BD8A068382108407168C9006F
:102700008842F1D128684007400FB84217D91A48CB
:102710000168C908C90039430160FFF72BFD054670
:1027200007E0FFF727FD411B1448814201D9032030
:10273000F8BD114800684007400FB842F1D1307829
:10274000400706D5A068072109038843F1680843BC
:10275000A06000F031F8A1683C2289091140094AC3
:10276000515CC906C90EC84007490860074800689F
:10277000FFF74CFEF8BD0000002002408813000067
:102780000010024040630008640000205C0000204C
:102790000648074900688968064A4904490F8900C4
:1027A000515CC906C90EC840704700006400002093
:1027B000001002408063000810B5204CA068204A39
:1027C0008006400F16D0A0688006410F50100129E6
:1027D0000FD0A1688906490F022912D0A06880068F
:1027E000400F042823D0A0688006400F032821D082
:1027F000002010BD206801218004400F8140104658
:1028000012E0E1688B07E1689B0F4906490F491CFC
:10281000032B00D01046FDF7AFFDE1684904490ED7
:102820004843E168490F491CFDF7A6FD10BD012092
:10283000C00310BD7D20000210BD0000001002404A
:102840000024F400F8B504007ED020783827C007B3
:10285000E94D002846D0A868E96838408907890F03
:10286000102802D008280BD001E0032908D001204D
:102870006268000482420AD129680143296015E098
:10288000286880032ED560680028DDD02AE0052363
:1028900001211B0489049A422A6802D10A432A6052
:1028A000EAE782432A602868884328606068002835
:1028B0000CD0FFF75FFC064604E0FFF75BFC801BD3
:1028C000642873D828688003F7D50BE0FFF752FC23
:1028D000064604E0FFF74EFC801B6428F1D8286808
:1028E0008003F7D42078800769D5A868E968384064
:1028F0008A070721920FC902102802D0002813D09E
:1029000001E0022A10D0E068002846D028688843F9
:102910002169084328602868FF21013108432860A5
:10292000FFF728FC06462CE02A68520502D5E2682B
:10293000002A89D06A687F231B029A4363691B02BD
:102940001A436A60002800E08DE00ED128688843B1
:10295000216908432860286801218004400F8140D4
:10296000A648FDF709FDA6490860A6480068FFF7DC
:102970004DFD002877D122E0FFF7FCFB801B0228E9
:102980009FD828684005F7D568687F2109028843E9
:10299000616909020843686011E02968FF2001307D
:1029A00081432960FFF7E6FB064605E098E0FFF764
:1029B000E1FB801B022884D828684005F7D42078E2
:1029C000914E00072ED5A8688006400F03280AD034
:1029D000A0690028306A16D0012108433062FFF751
:1029E000C9FB07460BE0306A80071BD5A0690028A9
:1029F0009FD017E0FFF7BEFBC01B022870D8306ADB
:102A00008007F7D50EE0400840003062FFF7B2FBC8
:102A1000074604E0FFF7AEFBC01B022860D8306A0F
:102A20008007F7D4207840076CD5A8680027800677
:102A3000400F042818D0E86BC00008D4E96B0120CF
:102A400000070143E963E96B0140012700916F48EA
:102A50000168C90519D40168821511430160FFF7A7
:102A600089FB00900DE083E0F06980074AD5A068FB
:102A700000287DD046E0FFF77DFB0099401A022830
:102A80002ED862480068C005F5D5A168012910D08C
:102A900004200529F16911D049084900F161F16963
:102AA0008143F161A068002816D0FFF763FB009016
:102AB0000EE0F06901210843F061F3E70143F161A1
:102AC000F7E7FFF757FB0099411A5148814265D853
:102AD000F0698007F5D50EE0FFF74CFB009007E0AA
:102AE0005CE0FFF747FB0099411A4948814255D8FD
:102AF000F0698007F5D4002F04D0E96B01200007AE
:102B00008143E963E069002873D0A9688906490F09
:102B100002294DD0012636060228286805D0B04388
:102B20002860FFF727FB04463AE0B0432860FFF730
:102B300021FB074604E0FFF71DFBC01B02282DD830
:102B400028688001F7D4616A206AA26A0843E16AB2
:102B5000120211430843216B0843E9682D4A1140D2
:102B60000843E860286830432860E868012100E0F5
:102B70003DE009070843E860FFF7FCFA044604E07B
:102B8000FFF7F8FA001B022808D828688001F7D55B
:102B90002FE0FFF7EFFA001B022801D90320F8BD50
:102BA00028688001F5D4E8681B490840E86020E007
:102BB0000128F4D0E868226A8107890F914216D172
:102BC0007021626A0140914211D17F21A26A0902FB
:102BD0000140120291420AD11F214904E26A0140D8
:102BE000914204D1400F216B4007884201D001205F
:102BF000F8BD0020F8BD0000001002400024F400E1
:102C0000640000205C000020401002400070004082
:102C1000881300008C80C11FFCFFFEEF094910B52E
:102C2000401E884201D9012010BD074C606103217C
:102C3000081F02F0F9FD0020A0610720206100209C
:102C400010BD0000FFFFFF0000E000E0704770478C
:102C50007047000070B5034620331A7F012A4BD01D
:102C600001221A770325CA682D02AA438D680068DD
:102C70002A430125AD02AA434D6800242A430125B9
:102C8000ED02AA430D682A4301252D03AA430D69CD
:102C90002A4301256D03AA434D692A430125AD034B
:102CA000AA430D6B2A430F252D04AA430D8B2D0437
:102CB0002A43124DA84204D101263607B243CE69F9
:102CC0003243A84214D10F252D05AA430D8D2D05A1
:102CD0002A4301252D06AA430D6A2A4301256D06C4
:102CE000AA434D6AC96A2A4301256D07AA430A43CC
:102CF00042641C77002070BD022070BD002C014092
:102D0000F0B5034620331A7F012A24D001221A7716
:102D100002225A7704686268A568104FBC4205D148
:102D200016460F22120596434A6832437026B24374
:102D30000E68164366600068B84202D0084A9042A6
:102D400004D1802289689543294381600120587706
:102D500000201877F0BD0220F0BD0000002C0140DB
:102D60000004004070B5040005D025462035687F7A
:102D7000002802D006E0012070BD00202877204600
:102D800000F016F802206877211D206801F08EFD02
:102D9000012240342272AA77EA7722706270A27010
:102DA000E27022716271A271E2716A77002070BDD7
:102DB000F8B5064600683149884216D130480268A5
:102DC000C1140A43026000680022084000901146C6
:102DD0000D20FFF761FB0D20FFF752FB002211468B
:102DE0000E20FFF759FB0E2044E02649884243D1CC
:102DF00023484038C26B02210A43C263C06B234C94
:102E0000084000902048206010270025A76020205F
:102E1000E56060608020206140006061E5618000C5
:102E20002562A0612046FFF74DF8002801D0FEF78B
:102E300057FF74621448A662154C14302060A760D6
:102E40002120E56060608020206140006061E561D4
:102E500080002562A0612046FFF734F8002801D0E9
:102E6000FEF73EFFB462002211461020A662FFF773
:102E700013FB1020FFF704FBF8BD0000002C0140FD
:102E800040100240000400401C000240C402002028
:102E900020030020F8B5054604462035287F00268B
:102EA000012817D001272F770220687722689068C1
:102EB0002F4B1840FF231B0298439060086850284E
:102EC00038D00EDC20284FD006DC00284CD010284B
:102ED0001ED149E00220F8BD302845D0402817D146
:102EE0003AE060282ED0702818D001221203801AF0
:102EF0000FD090420CD1CB684A688968206801F0F5
:102F000097FD20688168012292031143816000E0EF
:102F100001266F77002028773046F8BDCB684A68D5
:102F20008968206801F084FD216888687722104351
:102F30008860EEE7CA684968206801F0DFFE50212A
:102F4000206806E0CA684968206801F0E8FE602150
:102F5000206801F079FDDCE7CA684968206801F063
:102F6000CDFE40212068F4E7226801461046F0E7D4
:102F700088FFCEFF7047704770B50446006801694E
:102F80000025C9438907002915DBC168C9438907A2
:102F900011D4E91E01610120207720688069800733
:102FA000204602D0FFF7E7FF04E000F0F5F82046E6
:102FB00000F0AEF9257720680169C943490717D4A5
:102FC000C168C943490713D40421C94301610220E0
:102FD0002077206880698005800F204602D0FFF7A7
:102FE000CAFF04E000F0D8F8204600F091F92577F8
:102FF00020680169C943090716D4C168C943090794
:1030000012D40821C9430161042020772068C069D7
:103010008007204602D0FFF7AEFF04E000F0BCF8C6
:10302000204600F075F9257720680169C943C90673
:1030300017D4C168C943C90613D41021C94301611B
:10304000082020772068C0698005800F204602D0C4
:10305000FFF791FF04E000F09FF8204600F058F9D8
:10306000257720680169C943C90708D1C168C943E8
:10307000C90704D1891E0161204600F01DFB2068AC
:103080000169C943090609D4C168C943090605D4C1
:103090008021C94301612046FFF7D9FD20680169FD
:1030A000C943C90508D4C168C943090604D41249F3
:1030B00001612046FFF7CAFD20680169C94349063E
:1030C00009D4C168C943490605D44021C9430161F7
:1030D000204600F0F2FA20680169C943890609D444
:1030E000C168C943890605D42021C943016120462E
:1030F000FFF7AEFD70BD0000FFFEFFFF70B586B0AC
:10310000044614216846FDF7F1F81F4B226805209C
:1031100000241E490126022500079A421ED14A6B4F
:1031200032434A634A6B324005924A6B2A434A63F0
:10313000496B0294294005910921090200910195EA
:10314000049503946946FEF767FF402000900294BF
:1031500069460496019503940D4810E00D4B9A4280
:103160000FD14A6B32434A63496B0294C907C90FB6
:103170000591C02100910496019503946946FEF7DC
:103180004BFF06B070BD0000002C01400010024053
:1031900000040050000400407047F8B504460020C9
:1031A000264620360090307F0D4601280CD00120A5
:1031B000082730770C2A48D008DC002A10D0042ACF
:1031C0001ED0082A06D130E00220F8BD102A52D0C5
:1031D000142A60D001200090002030770098F8BDBC
:1031E000206801F03BFC20688169394381612068D7
:1031F0008169042291438161206881692A6911E013
:10320000206801F069FC206881690122D202114323
:1032100081612068816952109143816120688169D0
:103220002A69120211438161D6E7206801F092FCFD
:103230002068C1693943C1612068C1690422914392
:10324000C1612068C1692A6912E0206801F0C0FCF0
:103250002068C1690122D2021143C1612068C2699C
:10326000012189028A43C2612068C1692A69120268
:103270001143C161B0E7206801F0E0FC2068416DB6
:10328000394341652068426D04218A4342652068C4
:10329000416D2A6912E0206801F0FEFC2068416D52
:1032A0000122D202114341652068426D0121890249
:1032B0008A4342652068416D2A69120211434165C3
:1032C0008AE770B5040005D025462035687F0028C0
:1032D00002D006E0012070BD00202877204600F0D3
:1032E00016F802206877211D206801F0DFFA01221C
:1032F00040342272AA77EA7722706270A270E2707C
:1033000022716271A271E2716A77002070BD70470C
:1033100070B5094C002021780125012909D0617878
:10332000012905D160700421044800F04BF9A57013
:1033300070BD20700021F7E7000000206C02002023
:103340007047000030B505460223203000290ED01A
:10335000042911D02C464034082912D00C2915D04C
:10336000102918D0E278012A1AD0012030BD827FBE
:10337000012AFAD1837714E0C27F012AF5D1C377FD
:103380000FE02278012AF0D123700AE06278012A46
:10339000EBD1637005E0A278012AE6D1A37000E0CA
:1033A000E3700122286801F0BDFA114A28689042B2
:1033B00005D01049884202D00F49884204D1416C9F
:1033C0000123DB031943416428680121904202D0A4
:1033D0000A4A904207D18268094B1A40062A05D052
:1033E000DB1F9A4202D002680A430260002030BD0F
:1033F000002C01400044014000480140000400400E
:1034000007000100F8B5044600200D460090214653
:103410002046203140309446002D0ED0042D11D08E
:10342000082D14D00C2D17D0102D1AD0C278022AD6
:103430001CD0C278012A1BD071E08A7F022A15D0E5
:103440008A7FF7E7CA7F022A10D0CA7FF2E70278A4
:10345000022A0BD00278EDE74278022A06D04278A1
:10346000E8E78278022A01D08278E3E70220F8BDFB
:103470006246002A53D0002B51D00226494F4A4AB7
:10348000002D09D0042D18D0082D27D00C2D36D0B2
:10349000102D46D0C67045E08E77606AC762606ABC
:1034A0000263616A41484863226861463432606A57
:1034B000FEF75AFD002832D137E0CE77A06AC76206
:1034C000A06A0263A16A39484863226861463832BB
:1034D000A06AFEF749FD002821D12BE00670E06AC2
:1034E000C762E06A0263E16A304848632268614665
:1034F0003C32E06AFEF738FD002810D11FE046702C
:10350000206BC762206B0263216B284848632268E6
:1035100061464032206BFEF727FD002814D00120C1
:10352000F8BD8670012000903AE02068C168012251
:1035300052020DE02068C1680122920208E0206872
:10354000C1680122D20203E02068C168012212038F
:103550001143C16001222946206801F0E3F91449B2
:103560002068884205D0134A904202D0124A904205
:1035700004D1426C0123DB031A4342642068012218
:10358000884202D00D49884207D181680C4B19400E
:10359000062905D0DB1F994202D001681143016062
:1035A0000098F8BD3F490008A5490008DD4900081A
:1035B000002C01400044014000480140000400404C
:1035C00007000100F8B500260D460446002907D083
:1035D000042D0DD0082D13D00C2D19D0012656E046
:1035E0002068C168012252029143C160606A16E0FE
:1035F0002068C168012292029143C160A06A0EE076
:103600002068C1680122D2029143C160E06A06E0ED
:103610002068C168012212039143C160206BFEF74C
:10362000B3FB00222946206801F07CF91F491E4B9C
:1036300020688A10984205D01D4B984202D01D4B3D
:1036400098420AD1036A0B4207D1036A134204D19C
:10365000436C0127FF03BB4343642068036A0B42AA
:1036600006D1016A114203D101684908490001608D
:10367000214601202031002D0BD0042D0BD04034E9
:10368000082D0AD00C2D0AD0102D0AD0E07030463B
:10369000F8BD8877FBE7C877F9E72070F7E7607037
:1036A000F5E7A070F3E70000002C014011110000C5
:1036B0000044014000480140704770477047704720
:1036C0007047704770470000F8B503680446D96931
:1036D00018689A68B44D0E462E4025468035002E57
:1036E00075D0B24EB24F1640074037436ED0CF0769
:1036F00006D0C70504D501271F622B693B432B6108
:103700008B0708D5D30706D0276802233B622B69B5
:1037100004273B432B614B0708D5D30706D0276806
:1037200004233B622B6902273B432B610B0709D51E
:1037300020230340334305D02668082333622E69D3
:103740001E432E610B0509D5430107D501232668C9
:10375000DB0233622B69202633432B612B69002B5C
:1037600042D089060AD520210840C9050A401043E5
:1037700004D0616F002901D020468847286921685C
:103780008968490602D42821084232D0204601F037
:103790007BFB21688868400627D5EFF31080012263
:1037A00082F310888B68402293438B6080F31088EB
:1037B0002868002819D07F4981632868FEF7E4FA59
:1037C000002811D02868816B0DE000E017E08E061C
:1037D00015D5012720263F07064017403E430ED04F
:1037E000616FB5E020468847F8BD2046FFF76AFFC5
:1037F000F8BD2046FFF766FF00202861F8BDE66EA1
:10380000012E7DD1CE067BD5C60679D510221A624F
:1038100023689868264640064036002849DA296819
:10382000086840680004000CE8D0B78B8742E5D9EF
:10383000F08308680068800634D4EFF3108001211B
:1038400081F3108819681701B943196080F3108853
:10385000EFF31080012181F3108821688B685B08E9
:103860005B008B6080F31088EFF31080012181F3FF
:10387000108821688B684027BB438B6080F31088D9
:103880002020E8600020E066EFF31080012181F342
:10389000108821680B6893430B6080F310882868B8
:1038A000FEF738FA02202067B08BF18B401A81B204
:1038B00035E0B08BF18B401A81B2F08B00289DD09F
:1038C00000299BD0EFF31080012686F310881E6834
:1038D000FF272137BE431E6080F31088EFF310806E
:1038E000012383F3108823689E68304FFF433E40D6
:1038F0009E6080F310882020E8600020E06600E0F1
:1039000011E06067EFF31080012383F310882368D0
:103910001D6895431D6080F31088022020672046B3
:10392000FFF7CCFEF8BDCE0208D5560206D5012021
:10393000000518622046FFF7C4FEF8BD0E060BD541
:1039400001278026FF0506403A40164304D0A16FA8
:10395000002900D046E7F8BD4A0614D5420612D524
:103960002046EFF31081012282F310881A68402468
:10397000A2431A6081F310882021A9600021816789
:1039800000F08FFAF8BD0A0205D5420003D52046A3
:10399000FFF796FEF8BDC901FCD50028FADA2046EB
:1039A000FFF78DFEF8BD00000F08000001000010B9
:1039B00020010004754E000870B5040005D02546AE
:1039C0008035A868002802D006E0012070BD0020E4
:1039D0002871204600F026F82420A860206801689D
:1039E000490849000160204601F0C0FC0128EDD0E3
:1039F000A06A002802D0204601F0A4F9206841689E
:103A00000922D20291434160206881682A229143B1
:103A1000816020680168012211430160204601F0A5
:103A2000F7F970BD10B586B0044614216846FCF75E
:103A30005DFC15492068884224D11448C26B0121DD
:103A400049040A43C263C26B0A400592426B0121DA
:103A50000A434263406B0491084005900C2000909B
:103A60000220019000200290039005206946000783
:103A7000FEF7D2FA002211461C20FEF70DFD1C2095
:103A8000FEF7FEFC06B010BD0044004000100240EE
:103A9000FFB5074604468037F86885B00E462028F3
:103AA00002D0022009B0F0BD002E0CD007980028EB
:103AB00009D00120A1680003814206D120690028B5
:103AC00003D1F00701D00120ECE70020386122216A
:103AD000F960E066FEF74EFB0490254640350798F6
:103AE000A8830798E8830121A0680903FF22884280
:103AF00004D12369002B0BD1244A09E0002812D0FD
:103B000001221207904213D12269002A0ED03F22CF
:103B10002A8492B20292884202D12069002809D0F8
:103B20000196002608E02369002BF1D07F22EFE701
:103B30000022EDE700200190D0B20390E88B00282E
:103B400020D008980090002220212046049B01F0FC
:103B500057FD002801D00320A4E701980028206821
:103B6000406A0AD003990840019908700198401CE6
:103B70000190E88B401EE883E0E70299084030801E
:103B8000B61CF6E72020F86000208BE7FF0100005C
:103B900070B58C231B58202B01D0022070BD00294A
:103BA0000BD0002A09D0012483682403A34206D144
:103BB0000369002B03D1CB0701D0012070BD002386
:103BC000C366046863681B020BD5EFF310830125FD
:103BD00085F3108825680126B6063543256083F3F2
:103BE000108801F077FC70BD70B56349884273D1CD
:103BF000624CE079072870D1FF31642305228131BE
:103C00005D48FFF745FF5E480178A170022902D0A8
:103C1000012909D010E08278E272C2782273027919
:103C200062734278627207E08278A273C278E273AC
:103C3000027922744278A2720122E270002905D032
:103C40000025012966D0022921D13FE04178217267
:103C50004079A0714BA0FCF7B1FA217A4CA0FCF797
:103C6000ADFA207A1325030001F0BBFD0A2C060BE8
:103C70000D0F12171C21262C49A0FCF79FFA0B20D0
:103C800004E00C2002E00D2000E00E20207268E02D
:103C90000F20207201F074FD63E01020207200F00C
:103CA000F1FC5EE011202072FEF71CF859E01220B2
:103CB0002072FDF7EFFE54E0FDF7D6FE2572FDF70A
:103CC000D3FE4EE02572FDF7CFFEF8E7607A0128BB
:103CD00004D0022819D044E04DE046E0637B227B0B
:103CE000E17A002000F078FD637B227BE17A0120FD
:103CF00000F072FD2D2000F0DFFC022001F0F2FC4C
:103D00002CA0FCF75BFA25712BE02271FEF732FA4A
:103D1000206226E0A07A012802D002281DD020E0EF
:103D2000237CE27BA17B002000F062FD237CE27B10
:103D3000A17B012000F05CFD2D2000F005FD01209D
:103D400001F0D0FC1DA0FCF739FA237CE27BA17BBB
:103D50001CA0FCF733FA657103E06271FEF70AFA02
:103D6000E0610A210648FCF7C1FA04490122C91D95
:103D70000148FFF70DFF70BD380100202C00002026
:103D8000B80200205354524950200D0A0000000090
:103D90005061747465726E202564200D0A00000065
:103DA0004272656174686520576869746520310DD9
:103DB0000A000000437570200D0A00004761746519
:103DC000200D0A00476174652025642C2025642C91
:103DD0002025640D0A000000FFB507460446803721
:103DE000B86883B00D46202802D0022007B0F0BD8D
:103DF000002D0CD00598002809D00120A1680003EF
:103E0000814206D12069002803D1E80701D00120B2
:103E1000ECE7002038612120B860FEF7ABF9019093
:103E2000264640360598B0820598F0820120A168A8
:103E30000003814202D12069002802D002950025AA
:103E400015E00020029012E000228021204601F0BF
:103E5000D7FB002818D10298002817D021680078D5
:103E600088620298401C0290F08A401EF082F08A1C
:103E7000019B002806980090E6D1002240212046B0
:103E800001F0BEFB002808D00320AFE72888216896
:103E9000C005C00D8862AD1CE6E72020B860002098
:103EA000A4E77047FEE7000010B506480068806987
:103EB0004005400F034802D0FEF7ADF910BDFEF7F4
:103EC000D9F910BDCC01002010B5806A0021826BA9
:103ED000002A00D09163C26B002A00D0916300F0E9
:103EE0008FFA10BDF0B504460022CE0740342823D7
:103EF000B025002E05D0667842221F46B74300D079
:103F0000F2228E0705D5442664783243A34300D0BD
:103F10002A43CB0B01D0B8231A43102908D02029FB
:103F200007D0402905D00068016891430160F0BDC9
:103F300090210A43F7E701688A69D243920701D4C6
:103F400000228A6200688169C943C90703D0816978
:103F50000122114381617047F8B50546044640359A
:103F6000687828218143206804D00821C16100209D
:103F70002870F8BD8169C903CF0F8169FE230E0C3B
:103F800081681E408A05C168920D19408C46E1681F
:103F9000022916D10621D3090E400B409E420FD1B3
:103FA000A16C491CA164A16C0229E2D10021A16489
:103FB0000823C361297039462046FEF72BF9F8BD66
:103FC00066460121C9032046FFF78CFF00202870B8
:103FD0003246F0E7F8B505460446403568780026D5
:103FE000AE70334AE2626685626C0A4362642828D6
:103FF0001ED029281CD02A281AD02E492046FFF787
:1040000071FF6878602801D0202068706663206B9B
:10401000A16B294F002903D0112812D0212810D0DC
:10402000E16B002925D0122827D0222825D020E0B6
:1040300003212046FFF756FF282068701F48606361
:10404000E5E720680168490404D50168012292036C
:1040500091430160A06BFDF7D5FE012809D0A06B4C
:1040600087632E70A06BFDF78FFE002804D0A06B35
:104070001AE0204600F0C4F9F8BD20680168090480
:1040800004D501680122D20391430160E06BFDF782
:10409000B9FE0128EDD0E06B87632E70E06BFDF771
:1040A00073FE0028E8D0E06B816B8847F8BD000004
:1040B0000000FFFF03800000C93E0008D142000855
:1040C00070B504461648E06200252563202220468C
:1040D0004030064642708570C8436563400712D47D
:1040E0002068406A616A0870606A401C6062208DC6
:1040F000002808D0401E2085608D401E6085606CC1
:1041000004210843606407492046FFF7EBFE21685D
:104110001020C86135702046FEF710F970BD000010
:104120000000FFFF03800000F8B50268044616682F
:104130000546403568780F462021D161212806D0F8
:10414000292804D0222808D02A2806D00CE0424989
:104150002046FFF7C7FE212005E03F492046491CC5
:10416000FFF7C0FE22202063206841680122D203AD
:104170001143416020684168384A1140416020463F
:10418000FFF7D9FEF043410407D4206801680122FB
:10419000920391430160A06B08E000040BD42068F7
:1041A00002680121C9038A430260E06B002802D043
:1041B000006840686085F8434007042100280FDB51
:1041C00020688F43406A626A1070606A401C6062B7
:1041D000208D002804D0401E2085608D401E608503
:1041E000608D002802D0606C084360640026AE70C9
:1041F0006663606C00280BD0616C2046FFF7EAFE16
:104200006878282803D139462046FFF759FFF8BDC2
:10421000E06A134FB8420BD0204600F023F8E76263
:104220002020687026632E702046FEF787F8F8BDC0
:104230006878222807D02020687026632E702046D8
:10424000FEF7C7F8F8BD2020687026632E70204660
:10425000FEF7BEF8F8BD00000180000000E800FE97
:104260000000FFFF70B505460068016800262C4677
:104270004034A670C9434A0403D401680122920362
:1042800004E0090404D401680122D20391430160CF
:104290006178282029290ED061782A290AD16070F6
:1042A0002220286302212846FFF71CFE267028469C
:1042B000FEF78EF870BD607021202863012128462A
:1042C000FFF710FE26702846FEF783F870BD000049
:1042D000FEB5C56A0446064640360191307801288D
:1042E00028D0012030700198D743C0430090800649
:1042F000002805DBB80603D420460199FFF714FF18
:1043000000983D493D4AC00630D4F8062ED4638D4E
:104310001020002B10D02168C861606C0421084374
:104320006064002D01D0954262D1616C2046FFF798
:1043300051FE5DE00220FEBD7278282A08D10122DC
:104340005206954204D120460199FFF7B9FE4FE08D
:104350007278292A07D18D4205D02168C86120468C
:10436000FFF7E9FD41E02168C86141E0009840079E
:1043700017D4780715D4608D00280CD02068406AC7
:10438000626A1070606A401C6062208D401E208549
:10439000608D401E6085608D002829D18D4224D11A
:1043A00026E00098000706D4380704D42046019977
:1043B000FFF7D2FD1CE00098800719D4B80717D486
:1043C000608D00280DD0606A216800788862606A7C
:1043D000401C6062608D401E6085208D401E2085DF
:1043E00006E0954201D0002D02D12046FFF73AFFAA
:1043F00000203070FEBD00000000FFFF0000000143
:1044000010B5014640314B780022602B04D0026386
:104410000A70FDF737FF10BD20234B7002630A704E
:10442000FDF7F7FE10BD000010B5134811490160FB
:104430001249416000218160016141618161012275
:10444000C161C2600162FDF71FFF002801D072B692
:10445000FEE700210848FDF793FE002801D072B660
:10446000FEE700210448FDF7B0FE002801D072B637
:10447000FEE710BD00540040CC0100205D3E30201E
:1044800010B59CB0002419941A941794189414949D
:1044900015941C210DA81694FBF728FF34216846BB
:1044A000FBF724FF394838490160092184604160E5
:1044B00004614461FF218461C160FEF753FC002860
:1044C00001D072B6FEE701200003179017A92F480C
:1044D000FEF7E0FC002801D072B6FEE72B48FEF79D
:1044E000F0FE002801D072B6FEE71494159414A9CA
:1044F00026481694FEF704FC002801D072B6FEE7A9
:1045000060200D90772013940E900F9410941194C6
:10451000129400220DA91D48FEF73FFE002801D08D
:1045200072B6FEE708220DA91848FEF736FE0028ED
:1045300001D072B6FEE778200E900C220DA9134828
:10454000FEF72BFE002801D072B6FEE70120009492
:10455000400305900194029404940003039406948C
:104560000794099008940A940B9469460C940748A0
:10457000FEF770FB002801D072B6FEE70348FEF795
:10458000BDFD1CB010BD0000002C01402002002029
:1045900010B58EB000240794089409940A940B94E3
:1045A0000C941C2168460D94FBF7A0FE2448234977
:1045B000016001218460416004611D218461C1604A
:1045C000FEF7D0FB002801D072B6FEE70120000301
:1045D000079007A91A48FEF75DFC002801D072B6C3
:1045E000FEE71748FEF76DFE002801D072B6FEE721
:1045F0000B940BA912480D94FEF782FB002801D002
:1046000072B6FEE760200090019402940022694691
:1046100004940B48FEF7C1FD002801D072B6FEE7F6
:10462000042269460648FEF7B8FD002801D072B69C
:10463000FEE70348FEF762FD0EB010BD0004004027
:104640006C02002010B50D480B490160E1214902C0
:10465000416000218160C16001618161C1610162CD
:104660000C22416242618162FFF7A6F9002801D065
:1046700072B6FEE710BD0000004400403801002083
:10468000FEE7704709490020087148718871C871B8
:10469000087248728872C8720549FF220B685A6313
:1046A0000A68D063096808647047000000000020B1
:1046B0002002002070470000F0B585B02D2800DDF5
:1046C0002D205A210025081AFCF72AFBFCF7DAFAFC
:1046D000194A1A4BFCF7B2F9194B0022FBF73AFFC3
:1046E000FBF7FAFEFCF7CEFA019100901549A800FD
:1046F0000A460B5C083213544118012480180391B8
:1047000002900199009801F0DFFD064603980F46DC
:10471000005DFCF790F932463B46FBF71BFFFCF7C8
:104720003DF902990855641C042CEADB6D1C022D2E
:10473000DCDB05B0F0BD0000F1D4C853FB2109401B
:104740000080664014000020F0B585B02D2800DD03
:104750002D205A210025081AFCF7E2FAFCF792FAFC
:10476000194A1A4BFCF76AF9194B0022FBF7F2FEC3
:10477000FBF7B2FEFCF786FA019100901549A800FC
:104780000A460B5C18321354411801248018039117
:1047900002900199009801F097FD064603980F4694
:1047A000005DFCF748F932463B46FBF7D3FEFCF7C9
:1047B000F5F802990855641C042CEADB6D1C022DE7
:1047C000DCDB05B0F0BD0000F1D4C853FB2109408B
:1047D000008066400C00002030B5044C8500605518
:1047E000281942708170C37030BD00001400002091
:1047F00030B5044C85006055281942708170C37033
:1048000030BD00000C00002010B5FDF7E3FD10BD29
:1048100030B591B034216846FBF768FD00250120D2
:104820000D950E950F9540021095FDF739FE022467
:10483000E001039000944020059009200A90200494
:104840000B900794400304950C90099508946846D2
:10485000FDF7F8FF002801D072B6FEE707200DA98A
:1048600031C101210DA81095FDF7E6FE002801D009
:1048700072B6FEE711B030BD7047000010B50248B7
:10488000FEF77AFB10BD00002002002010B50248A0
:10489000FEF772FB10BD00002002002010B5024898
:1048A000FEF76AFB10BD00006C02002070B50268C4
:1048B000174B184E984201D0B04203D17024A24346
:1048C0004C682243144C154D984208D0B04206D093
:1048D000134EB04203D0A04201D0A84204D1032617
:1048E0003602B243CE6832438026B2434E69324329
:1048F00002608A68C2620A688262984203D0A0425B
:1049000001D0A84201D1096901630121416170BD53
:10491000002C0140000400400044014000480140D8
:104920000020004010B5CB06DB0E0121046A99403F
:104930008C430462016A9A401143016210BD10B5B4
:10494000846A0121626A824206D12177C069002807
:1049500022D13E2001551FE0A26A824207D10222E5
:104960002277C069002817D13F20015514E0E26A80
:10497000824207D104222277C06900280CD140204E
:10498000015509E0226B824206D108222277C069D4
:10499000002801D1412001552046FEF7B9FC002036
:1049A000207710BD10B5846A616A814201D101206F
:1049B0000DE0A16A814201D1022008E0E16A814252
:1049C00001D1042003E0216B814201D1082020772E
:1049D0002046FEF7B5FC0020207710BD10B5846A94
:1049E0000121626A824203D121773E20015519E0FC
:1049F000A26A824204D1022020773F20015511E0B3
:104A0000E26A824204D1042020774020015509E067
:104A1000226B824204D1082020774120015501E019
:104A20003D2001552046FEF7A5FA0020207710BD55
:104A300030B58468FF252D021B021343AC430B43A2
:104A40002343836030BD00008268034B1A400A4351
:104A500007210A43826070478FFFCFFFF0B5026ADB
:104A6000520852000262056A43688269164C184E69
:104A7000224092080C6892001443022295438A68EF
:104A80002A43124DA84204D0B04202D0114FB8427E
:104A900006D10827BA43CF681743042297433A4602
:104AA000A84204D0B04202D00A4DA84206D1032544
:104AB0002D02AB434D691D438B692B4343608461D9
:104AC000496841630262F0BD8FFFFEFF002C014088
:104AD000004401400048014070B5026A10239A4327
:104AE0000262046A43688269164D2A4003252D023A
:104AF000AA430D682D021543202294438A681201AF
:104B00002243114CA04208D11446CA688026B443FF
:104B1000120122434024A24305E00C4CA04202D0E3
:104B20000B4CA04208D10324A402A3434C69A40067
:104B30001C438B699B002343436085614968816303
:104B4000026270BDFF8FFFFE002C01400044014057
:104B50000048014070B5026AFF2301339A430262A4
:104B6000046A4368C269164D2A4092080D68920093
:104B700015430122520294438A6812022243114CC7
:104B8000A04208D11446CA68C614B4431202224394
:104B90000415A24305E00C4CA04202D00B4CA042ED
:104BA00008D103242403A3434C6924011C438B69CB
:104BB0001B0123434360C5614968C163026270BD44
:104BC0008FFFFEFF002C01400044014000480140DF
:104BD00030B5026A01231B039A430262046A4568E6
:104BE000C269124B1A4003231B029A430B681B0233
:104BF00013430122520394438A68120322430C4C4C
:104C0000A04205D00B4CA04202D00B4CA04206D1D2
:104C10002C460125AD03AC434D69AD0125434560EC
:104C2000C36149680164026230BD0000FF8FFFFE6E
:104C3000002C0140004401400048014070B5026A68
:104C400001263604B2430262036A4268446D0E4D87
:104C50002C400D6825437400A3430C8924041C4395
:104C60000A4B984205D00A4B984202D0094B984211
:104C700003D14B69B2431B021A4342604565496840
:104C80008165046270BD00008FFFFEFF002C0140B3
:104C9000004401400048014070B5026A01231B0531
:104CA0009A430262036A4268456D104C25400C68C5
:104CB00024022C4301256D05AB430D892D051D43B1
:104CC0000B4B984205D00B4B984202D00A4B9842AE
:104CD00006D101261346B6044A69B34392021A4329
:104CE000426044654968C165056270BDFF8FFFFE83
:104CF000002C0140004401400048014030B5036AE7
:104D0000046A6408640004628469F025AC431201FB
:104D100022430A24A3430B438261036230BD30B5B2
:104D2000036A1024A34303628469036A0F252D03D9
:104D30001203AC432243A024A34309011943826117
:104D4000016230BD10B5018DC90707D001684A68FE
:104D500001235B049A43C36A1A434A60018D8907A1
:104D600007D501684A6801231B049A43036B1A4361
:104D70004A60018D490707D501684A6801239B04F1
:104D80009A43436B1A434A60018D090707D50168AE
:104D90004A680123DB039A43836B1A434A60018DFF
:104DA000C90607D50268916801231B039943C36BA9
:104DB00019439160018D890607D501688A6801232E
:104DC0005B039A43036C1A438A60018D490612D52E
:104DD00003685A6801210905446C8A4322435A60DA
:104DE000426C8A4207D10268516803235B059943EC
:104DF000836C19435160018D090607D501684A6823
:104E00000123DB04C06C9A4302434A6010BD0000DA
:104E1000FEB506460025803604463561FDF7AAF941
:104E2000019020680068124F000709D50121009702
:104E3000002249052046019B00F0E2FB00280DD12D
:104E40002068006840070BD50121009700228905E2
:104E50002046019B00F0D4FB002801D00320FEBDBA
:104E60002020B060F060E566256735710020FEBD4A
:104E7000FFFFFF0110B5806A002201464031CA835E
:104E8000CA82FEF71FFC10BD10B5EFF3108101229E
:104E900082F3108802681368FF242134A34313604F
:104EA00081F31088EFF31081012282F310880268E9
:104EB00093680D4C2340936081F31088C16E0129E3
:104EC0000BD1EFF31081012282F31088026813687E
:104ED0001024A343136081F3108820228C210A50F0
:104EE0000021C166416710BDFEFFFFEF70B50146AE
:104EF0004031034680330C8CDD680268222D04D0DB
:104F0000906908210843906170BD526A856D224006
:104F10002A80826D921C8265CA8B521ECA83CA8BFC
:104F2000002AF1D1EFF31082012484F31088046881
:104F30002568FF262136B543256082F31088EFF3FC
:104F40001082012484F310880468A5686D086D0040
:104F5000A56082F310882022DA600022426702678F
:104F6000C36E012B02D0FEF73FFE70BDC266EFF3A9
:104F70001082012383F310880468256810239D4361
:104F8000256082F310880268D469E443E40600D403
:104F90001362898BFEF792FB70BD0000F0B50546E9
:104FA0000446403589B0288C02902068C6690168A3
:104FB000069181680491214680310091C9682229B7
:104FC00005D0816908221143816109B0F0BD2F8DA0
:104FD00069E02068406A029AA16D10400880A06DC7
:104FE000801CA065E88B401EE8832068C6697107B5
:104FF00031D0F10709D00699C90506D50121016212
:1050000000980069084300990861B0070BD504981F
:10501000C00708D0216802200862009800690421B6
:1050200008430099086170070BD50498C00708D0A1
:105030002168042008620098006902210843009951
:10504000086100980069002805D02046FEF73AFB69
:10505000009900200861E88B002824D1EFF310802C
:10506000012181F3108821680A68FF2301339A43E4
:105070000A6080F31088EFF31080012181F310881B
:1050800021688A68274B1A408A6080F3108800994B
:105090002020C860002060672067E16E012928D0C9
:1050A0002046FEF7A1FD002F01D0B00691D4E88B79
:1050B00000288AD0298D814287D9EFF31080012101
:1050C00081F3108821688A6801231B079A438A604C
:1050D00080F3108814486067EFF31080012181F39A
:1050E000108821680A6820231A430A6080F3108818
:1050F0006BE7E066EFF31080012181F310882268EE
:10510000136810218B43136080F310882068C269F4
:10511000D243D20600D40162A98B2046FEF7CEFA14
:10512000C1E70000FEFFFFEFED4E000870B501463D
:105130004031034680330C8CDD680268222D04D098
:10514000906908210843906170BD526A2240846DC5
:105150002270826D521C8265CA8B521ECA83CA8B12
:10516000002AF1D1EFF31082012484F3108804683F
:105170002568FF262136B543256082F31088EFF3BA
:105180001082012484F310880468A5686D086D00FE
:10519000A56082F310882022DA600022426702674D
:1051A000C36E012B02D0FEF71FFD70BDC266EFF388
:1051B0001082012383F310880468256810239D431F
:1051C000256082F310880268D469E443E40600D4C1
:1051D0001362898BFEF772FA70BD0000F0B50546C8
:1051E0000446403589B0288C01902168CE69086852
:1051F000069088680490204680300290C06822287B
:1052000005D0886908221043886109B0F0BD2F8D50
:1052100069E02068406A01990840A16D0870A06D9E
:10522000401CA065E88B401EE8832068C6697107B2
:1052300031D0F10709D00699C90506D501210162CF
:1052400002980069084302990861B0070BD50498D9
:10525000C00708D021680220086202980069042172
:1052600008430299086170070BD50498C00708D05D
:10527000216804200862029800690221084302990B
:10528000086102980069002805D02046FEF71AFA46
:10529000029900200861E88B002824D1EFF31080E8
:1052A000012181F3108821680A68FF2301339A43A2
:1052B0000A6080F31088EFF31080012181F31088D9
:1052C00021688A68274B1A408A6080F31088029907
:1052D0002020C860002060672067E16E012928D087
:1052E0002046FEF781FC002F01D0B00691D4E88B58
:1052F00000288AD0298D814287D9EFF310800121BF
:1053000081F3108821688A6801231B079A438A6009
:1053100080F3108814486067EFF31080012181F357
:10532000108821680A6820231A430A6080F31088D5
:105330006BE7E066EFF31080012181F310882268AB
:10534000136810218B43136080F310882068C269B2
:10535000D243D20600D40162A98B2046FEF7AEF9F3
:10536000C1E70000FEFFFFEF2D510008F8B504462D
:1053700080682169E2690843616900251143226858
:10538000084311684B4B1940014311602068416884
:10539000032212039143E26811434160A169206A2C
:1053A000084321688A68444B1A4002438A60206897
:1053B000C16A626A090909011143C1623F49206853
:1053C000884211D13E4840698007800F0FD00128E4
:1053D00006D0022802D003280BD103E0022109E005
:1053E000042107E0082105E03649884201D1002167
:1053F00000E010210120E369C003334A334E344FEB
:10540000834227D1002906D0022907D0042907D0DA
:1054100008293FD108E0FDF7BBF903E0104603E09F
:10542000FDF7CAF900283AD0616A4900715AFAF7C3
:10543000A3FF616840004A088018FAF79DFF014603
:105440001039B94226D82249491C01400007400FB3
:10545000084322E0002906D0022907D0042907D0FA
:10546000082917D108E0FDF793F903E0104603E09F
:10547000FDF7A2F9002812D0616A4900715AFAF7C3
:105480007BFF61684A088018FAF776FF01461039F9
:10549000B94201D9012502E080B22168C8602046E6
:1054A000012140304185018500206067A0672846C2
:1054B000F8BD0000F369FFCFFFF4FF110038014091
:1054C00040100240004400400024F400286300081B
:1054D000EFFF0000F0B58165014640318A83CA8341
:1054E00000254567012483682403FF26A34204D1D5
:1054F0000369002B13D13D4B0AE07F27002B09D015
:1055000001263607B3420CD10369002B05D03F2397
:105510000B8407E00369002B01D00F8402E00E84A6
:1055200000E00D84034680331D612225DD60EFF32A
:105530001083012585F310880568AE6801273E4376
:10554000AE6083F31088436E7D07AB4229D1098D8D
:10555000914226D88168A14202D1016900291DD05B
:1055600023494167016900290CD0EFF31081012222
:1055700082F3108802681368FF2401342343136008
:1055800081F31088EFF31081012282F31088006804
:10559000826801231B071A43826023E01549416793
:1055A000F0E78168A14202D1016900290ED01249B9
:1055B0004167016900290BD0EFF31081012282F3CA
:1055C000108800680268FF23213309E00B49416716
:1055D000EFF31081012282F3108800680268202313
:1055E0001A43026081F310880020F0BDFF01000023
:1055F000DD5100089D4F00082D510008ED4E0008B8
:10560000FFB581B005461746044680350A9E54E032
:10561000701C52D0FCF7AEFD0499401AB0422FD84E
:10562000002E2DD020680168490746D5C069C043C7
:10563000000542D401202168C0020862EFF3108007
:10564000012181F3108821680B68FF22A132934366
:105650000B6080F31088EFF31080012181F3108834
:1056600021688A68520852008A6080F310882020DE
:10567000A860E860286100202871032005B0F0BD13
:10568000EFF31080012181F3108821680A68FF235D
:10569000A1339A430A6080F31088EFF31080012150
:1056A00081F3108821688A68520852008A6080F36A
:1056B00010882020A860E860DDE72068C1690298B2
:1056C000884304D00020B842A2D00020D6E70120B1
:1056D000F9E7000010B50248FDF7F6FF10BD000025
:1056E00038010020F8B50021224C0B46022802D0D8
:1056F000012803D00DE09D001F4A02E01E4A9D00D4
:105700000832AD186A78AE7812043602ED7832436A
:105710002A4317250126AE40164201D0132600E089
:1057200009264F00491CE6536D1EF3D55B1C022B66
:10573000DCDB002215464B00491C521CE552322A84
:10574000F9DB0D4C1C3C02280AD0012807D16070FF
:105750008BB2084A04210948FDF754FEE570F8BDF4
:10576000012020708BB2034A00210448FDF74AFE55
:10577000A570F8BD740000201C0000206C02002001
:1057800009490020087148718871C871087248720F
:105790008872C8720549FF200A6850630A68D0639E
:1057A0000968086470470000000000202002002003
:1057B000F0B4040C8BB2264682B25E430D0C104648
:1057C000370C5843360480190021794116466E4340
:1057D000370C36048019794126466E438919F0BC8E
:1057E000704730B47446641E2578641CAB4200D206
:1057F0001D46635D5B00E31830BC18474900CA02D0
:105800000243100000D004204A0D01D001221043B1
:10581000044A490D914201D102210843012800D1D7
:1058200005207047FF0700008307FF22DB0E9A4028
:105830008907090E9940002808DB830809489B0066
:105840001B18186890430843186070470007000F42
:105850000838830804489B001B18D8699043084304
:10586000D861704700E400E000ED00E0F7B596B0C5
:1058700014460021A160D160179909914D00CD49CE
:105880006D088D4205DC179961602060002019B019
:10589000F0BDC949C94E8D4238DAD32709997F0531
:1058A0000029C74A1799334617DDFBF716FDB542A5
:1058B00006D0C44AC44BFBF710FD6160206009E0CC
:1058C0003A46C14BFBF709FDC04AC14BFBF705FD4A
:1058D00061602060012019B0F0BDFBF7F1FCB5421A
:1058E00006D0B84AB84BFBF7EBFC6160206009E0DA
:1058F0003A46B54BFBF7E4FCB44AB54BFBF7E0FC8A
:10590000616020600020C04319B0F0BDB1498D42F4
:10591000179977DC490049080746AF4AAF4B049115
:10592000FBF78CF80022AE4BFBF7CAFCFBF7F8FC48
:105930000A90FBF778F8A24A334603910290FBF7EE
:105940007DF83A46049BFBF7D3FC06460F469D4A7A
:105950009D4B03990298FBF771F82A0D01250C92D3
:1059600032463B46FBF7C4FC61602060032D39D012
:105970004800410D0C98401A69016918113981429B
:1059800030DA98492801794408960D900818049750
:105990004368026803990298FBF750F802460B46E9
:1059A0000791069004990898FBF797FC06460F4666
:1059B000049B089AFBF79CFC079B069AFBF78DFC5F
:1059C00005918949049079440D984018C36882680C
:1059D00003990298FBF732F8059B049AFBF77DFCCC
:1059E0006D1CBDE70998002809DA01226068D2071A
:1059F000504060600A9819B04042F0BD02E00A9839
:105A000019B0F0BD09030122090B12050E90891887
:105A10001798109140007549400D40184111C0067B
:105A2000C00E0D9113902021081A149000200690AA
:105A300005250790139800280D980CD04019820076
:105A40006B487844875813998F4010184168149810
:105A5000C1400F4304E0401981006648784447582C
:105A600010993846FFF7A4FE06460A9138460E996B
:105A7000FFF79EFE8A190A9B8A4201D2012100E0AB
:105A80000021C9188C46AF00694679188B684E68AA
:105A9000C318834201D2012000E000209619361875
:105AA000002802D0964202D903E0964201D201209A
:105AB00000E00020624612184E6068468B60C251BA
:105AC00028466D1E0028B5DC0121029849074018C0
:105AD000800F1390029805998000039E049D0B91FE
